{
  "contractName": "MitoCoinDriaLite",
  "abi": [
    {
      "inputs": [],
      "payable": false,
      "stateMutability": "nonpayable",
      "type": "constructor"
    },
    {
      "constant": true,
      "inputs": [],
      "name": "totalSupply",
      "outputs": [
        {
          "internalType": "uint256",
          "name": "",
          "type": "uint256"
        }
      ],
      "payable": false,
      "stateMutability": "view",
      "type": "function"
    }
  ],
  "bytecode": "0x6080604052348015600f57600080fd5b50629896806000819055506084806100286000396000f3fe6080604052348015600f57600080fd5b506004361060285760003560e01c806318160ddd14602d575b600080fd5b60336049565b6040518082815260200191505060405180910390f35b6000548156fea265627a7a72315820bf0cb9ab0507d33bf8d1d610d78b8ec9db2d5c8839bbf968d9107de14632112f64736f6c63430005100032",
  "source": "// SPDX-License-Identifier: MIT\npragma solidity >=0.4.22 <0.9.0;\n\ncontract MitoCoinDriaLite {\n\t// Constructor\n\t// Set total nb of token\n\t// Read the total number of tokens\n\n\tuint256 public totalSupply;\n\n\tconstructor () public {\n\t\ttotalSupply = 10000000;\n\t}\n}\n",
  "sourcePath": "/Volumes/GoogleDrive/My Drive/Code/MitoCoinDria/master/contracts/MitoCoinDriaLite.sol",
  "compiler": {
    "name": "solc",
    "version": "0.5.16+commit.9c3226ce.Emscripten.clang"
  },
  "schemaVersion": "3.4.1",
  "updatedAt": "2021-06-24T09:48:29.070Z",
  "networkType": "ethereum",
  "devdoc": {
    "methods": {}
  },
  "userdoc": {
    "methods": {}
  }
}